{
  "contractName": "TokenPool",
  "abi": [
    {
      "constant": true,
      "inputs": [
        {
          "name": "",
          "type": "address"
        }
      ],
      "name": "connectors",
      "outputs": [
        {
          "name": "",
          "type": "address"
        }
      ],
      "payable": false,
      "stateMutability": "view",
      "type": "function"
    },
    {
      "constant": false,
      "inputs": [
        {
          "name": "_receiver",
          "type": "address"
        }
      ],
      "name": "setReceiver",
      "outputs": [],
      "payable": false,
      "stateMutability": "nonpayable",
      "type": "function"
    },
    {
      "constant": false,
      "inputs": [],
      "name": "acceptOwnership",
      "outputs": [],
      "payable": false,
      "stateMutability": "nonpayable",
      "type": "function"
    },
    {
      "constant": true,
      "inputs": [],
      "name": "owner",
      "outputs": [
        {
          "name": "",
          "type": "address"
        }
      ],
      "payable": false,
      "stateMutability": "view",
      "type": "function"
    },
    {
      "constant": true,
      "inputs": [],
      "name": "container",
      "outputs": [
        {
          "name": "",
          "type": "address"
        }
      ],
      "payable": false,
      "stateMutability": "view",
      "type": "function"
    },
    {
      "constant": true,
      "inputs": [],
      "name": "maxLevel",
      "outputs": [
        {
          "name": "",
          "type": "uint256"
        }
      ],
      "payable": false,
      "stateMutability": "view",
      "type": "function"
    },
    {
      "constant": false,
      "inputs": [
        {
          "name": "_sender",
          "type": "address"
        }
      ],
      "name": "setSender",
      "outputs": [],
      "payable": false,
      "stateMutability": "nonpayable",
      "type": "function"
    },
    {
      "constant": true,
      "inputs": [],
      "name": "newOwner",
      "outputs": [
        {
          "name": "",
          "type": "address"
        }
      ],
      "payable": false,
      "stateMutability": "view",
      "type": "function"
    },
    {
      "constant": false,
      "inputs": [
        {
          "name": "_newOwner",
          "type": "address"
        }
      ],
      "name": "transferOwnership",
      "outputs": [],
      "payable": false,
      "stateMutability": "nonpayable",
      "type": "function"
    },
    {
      "inputs": [
        {
          "name": "_container",
          "type": "address"
        }
      ],
      "payable": false,
      "stateMutability": "nonpayable",
      "type": "constructor"
    },
    {
      "anonymous": false,
      "inputs": [
        {
          "indexed": false,
          "name": "id",
          "type": "uint256"
        },
        {
          "indexed": false,
          "name": "poolId",
          "type": "uint256"
        },
        {
          "indexed": false,
          "name": "level",
          "type": "uint8"
        }
      ],
      "name": "InsertPool",
      "type": "event"
    },
    {
      "anonymous": false,
      "inputs": [
        {
          "indexed": false,
          "name": "id",
          "type": "uint256"
        },
        {
          "indexed": false,
          "name": "superPoolValue",
          "type": "uint256"
        },
        {
          "indexed": false,
          "name": "poolValue",
          "type": "uint256"
        },
        {
          "indexed": false,
          "name": "subPoolValue",
          "type": "uint256"
        },
        {
          "indexed": false,
          "name": "comission",
          "type": "uint256"
        }
      ],
      "name": "DistributeValue",
      "type": "event"
    },
    {
      "anonymous": false,
      "inputs": [
        {
          "indexed": false,
          "name": "id",
          "type": "uint256"
        },
        {
          "indexed": false,
          "name": "value",
          "type": "uint256"
        }
      ],
      "name": "SecondTierCall",
      "type": "event"
    },
    {
      "anonymous": false,
      "inputs": [
        {
          "indexed": false,
          "name": "id",
          "type": "uint256"
        },
        {
          "indexed": false,
          "name": "poolId",
          "type": "uint256"
        },
        {
          "indexed": false,
          "name": "value",
          "type": "uint256"
        },
        {
          "indexed": false,
          "name": "level",
          "type": "uint8"
        }
      ],
      "name": "ShortOfFunds",
      "type": "event"
    },
    {
      "anonymous": false,
      "inputs": [
        {
          "indexed": false,
          "name": "id",
          "type": "uint256"
        },
        {
          "indexed": false,
          "name": "value",
          "type": "uint256"
        },
        {
          "indexed": false,
          "name": "level",
          "type": "uint8"
        }
      ],
      "name": "PaymentValue",
      "type": "event"
    },
    {
      "anonymous": false,
      "inputs": [
        {
          "indexed": true,
          "name": "_prevOwner",
          "type": "address"
        },
        {
          "indexed": true,
          "name": "_newOwner",
          "type": "address"
        }
      ],
      "name": "OwnerUpdate",
      "type": "event"
    },
    {
      "anonymous": false,
      "inputs": [
        {
          "indexed": false,
          "name": "_sender",
          "type": "address"
        },
        {
          "indexed": false,
          "name": "_receiver",
          "type": "address"
        }
      ],
      "name": "ReceiverUpdate",
      "type": "event"
    },
    {
      "anonymous": false,
      "inputs": [
        {
          "indexed": false,
          "name": "_sender",
          "type": "address"
        },
        {
          "indexed": false,
          "name": "_receiver",
          "type": "address"
        }
      ],
      "name": "SenderUpdate",
      "type": "event"
    },
    {
      "constant": false,
      "inputs": [
        {
          "name": "_id",
          "type": "uint256"
        }
      ],
      "name": "insertPool",
      "outputs": [
        {
          "name": "",
          "type": "bool"
        }
      ],
      "payable": false,
      "stateMutability": "nonpayable",
      "type": "function"
    },
    {
      "constant": false,
      "inputs": [],
      "name": "insertSubPool",
      "outputs": [
        {
          "name": "subPoolId",
          "type": "uint256"
        }
      ],
      "payable": false,
      "stateMutability": "nonpayable",
      "type": "function"
    },
    {
      "constant": true,
      "inputs": [
        {
          "name": "_claimant",
          "type": "address"
        },
        {
          "name": "_tokenId",
          "type": "uint256"
        }
      ],
      "name": "connector_owns",
      "outputs": [
        {
          "name": "",
          "type": "bool"
        }
      ],
      "payable": false,
      "stateMutability": "view",
      "type": "function"
    },
    {
      "constant": true,
      "inputs": [
        {
          "name": "_id",
          "type": "uint256"
        }
      ],
      "name": "connector_getMetadata",
      "outputs": [
        {
          "name": "",
          "type": "string"
        }
      ],
      "payable": false,
      "stateMutability": "view",
      "type": "function"
    },
    {
      "constant": false,
      "inputs": [
        {
          "name": "_id",
          "type": "uint256"
        },
        {
          "name": "_metadata",
          "type": "string"
        }
      ],
      "name": "connector_setMetadata",
      "outputs": [],
      "payable": false,
      "stateMutability": "nonpayable",
      "type": "function"
    },
    {
      "constant": false,
      "inputs": [
        {
          "name": "_amount",
          "type": "uint256"
        },
        {
          "name": "_member",
          "type": "address"
        }
      ],
      "name": "connector_createNFT",
      "outputs": [
        {
          "name": "",
          "type": "uint256"
        }
      ],
      "payable": false,
      "stateMutability": "nonpayable",
      "type": "function"
    },
    {
      "constant": false,
      "inputs": [
        {
          "name": "_id",
          "type": "uint256"
        }
      ],
      "name": "connector_addTokenToSubPool",
      "outputs": [
        {
          "name": "",
          "type": "bool"
        }
      ],
      "payable": false,
      "stateMutability": "nonpayable",
      "type": "function"
    },
    {
      "constant": true,
      "inputs": [
        {
          "name": "_owner",
          "type": "address"
        }
      ],
      "name": "connector_tokensOfOwner",
      "outputs": [
        {
          "name": "ownerTokens",
          "type": "uint256[]"
        }
      ],
      "payable": false,
      "stateMutability": "view",
      "type": "function"
    },
    {
      "constant": true,
      "inputs": [
        {
          "name": "_id",
          "type": "uint256"
        }
      ],
      "name": "getSubPool",
      "outputs": [
        {
          "name": "",
          "type": "uint256"
        }
      ],
      "payable": false,
      "stateMutability": "view",
      "type": "function"
    },
    {
      "constant": true,
      "inputs": [
        {
          "name": "_id",
          "type": "uint256"
        }
      ],
      "name": "getState",
      "outputs": [
        {
          "name": "",
          "type": "uint256"
        }
      ],
      "payable": false,
      "stateMutability": "view",
      "type": "function"
    },
    {
      "constant": false,
      "inputs": [
        {
          "name": "_id",
          "type": "uint256"
        },
        {
          "name": "_state",
          "type": "uint256"
        }
      ],
      "name": "setState",
      "outputs": [],
      "payable": false,
      "stateMutability": "nonpayable",
      "type": "function"
    },
    {
      "constant": true,
      "inputs": [],
      "name": "getPoolSize",
      "outputs": [
        {
          "name": "",
          "type": "uint256"
        }
      ],
      "payable": false,
      "stateMutability": "view",
      "type": "function"
    },
    {
      "constant": true,
      "inputs": [
        {
          "name": "_id",
          "type": "uint256"
        }
      ],
      "name": "getValue",
      "outputs": [
        {
          "name": "",
          "type": "uint256"
        }
      ],
      "payable": false,
      "stateMutability": "view",
      "type": "function"
    },
    {
      "constant": false,
      "inputs": [
        {
          "name": "_id",
          "type": "uint256"
        },
        {
          "name": "_value",
          "type": "uint256"
        }
      ],
      "name": "setValue",
      "outputs": [],
      "payable": false,
      "stateMutability": "nonpayable",
      "type": "function"
    },
    {
      "constant": false,
      "inputs": [],
      "name": "init",
      "outputs": [],
      "payable": false,
      "stateMutability": "nonpayable",
      "type": "function"
    }
  ],
  "bytecode": "0x608060405234801561001057600080fd5b50604051602080613e4f83398101806040528101908080519060200190929190505050336000806101000a81548173ffffffffffffffffffffffffffffffffffffffff021916908373ffffffffffffffffffffffffffffffffffffffff16021790555080600460006101000a81548173ffffffffffffffffffffffffffffffffffffffff021916908373ffffffffffffffffffffffffffffffffffffffff160217905550600460058190555050613d83806100cc6000396000f30060806040526004361061013d576000357c0100000000000000000000000000000000000000000000000000000000900463ffffffff168062607b7f146101425780630e53aae9146101875780630ff4c9161461020a57806323845e4b1461024b57806334bda0131461027657806344c9af28146102b75780634908a554146102f85780636b0d4f4d1461036b578063718da7ee1461039657806379ba5097146103d95780637b8d56e3146103f05780638da5cb5b1461042757806390e534a71461047e578063a780b22e146104d5578063b9d77bfc1461056d578063c97dcba9146105a4578063cc06c3591461064a578063cc933f9d14610675578063ced32b0c146106da578063d4ee1d901461071d578063daa8d4f014610774578063e1c7392a146107b9578063ea81d620146107d0578063f2fde38b14610831575b600080fd5b34801561014e57600080fd5b5061016d60048036038101908080359060200190929190505050610874565b604051808215151515815260200191505060405180910390f35b34801561019357600080fd5b506101c8600480360381019080803573ffffffffffffffffffffffffffffffffffffffff16906020019092919050505061090b565b604051808273ffffffffffffffffffffffffffffffffffffffff1673ffffffffffffffffffffffffffffffffffffffff16815260200191505060405180910390f35b34801561021657600080fd5b506102356004803603810190808035906020019092919050505061093e565b6040518082815260200191505060405180910390f35b34801561025757600080fd5b50610260610a13565b6040518082815260200191505060405180910390f35b34801561028257600080fd5b506102a160048036038101908080359060200190929190505050610a20565b6040518082815260200191505060405180910390f35b3480156102c357600080fd5b506102e260048036038101908080359060200190929190505050610af5565b6040518082815260200191505060405180910390f35b34801561030457600080fd5b5061036960048036038101908080359060200190929190803590602001908201803590602001908080601f0160208091040260200160405190810160405280939291908181526020018383808284378201915050505050509192919290505050610bca565b005b34801561037757600080fd5b50610380610d7a565b6040518082815260200191505060405180910390f35b3480156103a257600080fd5b506103d7600480360381019080803573ffffffffffffffffffffffffffffffffffffffff169060200190929190505050610f9e565b005b3480156103e557600080fd5b506103ee61110e565b005b3480156103fc57600080fd5b5061042560048036038101908080359060200190929190803590602001909291905050506112ad565b005b34801561043357600080fd5b5061043c6113f8565b604051808273ffffffffffffffffffffffffffffffffffffffff1673ffffffffffffffffffffffffffffffffffffffff16815260200191505060405180910390f35b34801561048a57600080fd5b5061049361141d565b604051808273ffffffffffffffffffffffffffffffffffffffff1673ffffffffffffffffffffffffffffffffffffffff16815260200191505060405180910390f35b3480156104e157600080fd5b50610516600480360381019080803573ffffffffffffffffffffffffffffffffffffffff169060200190929190505050611443565b6040518080602001828103825283818151815260200191508051906020019060200280838360005b8381101561055957808201518184015260208101905061053e565b505050509050019250505060405180910390f35b34801561057957600080fd5b506105a26004803603810190808035906020019092919080359060200190929190505050611630565b005b3480156105b057600080fd5b506105cf6004803603810190808035906020019092919050505061177b565b6040518080602001828103825283818151815260200191508051906020019080838360005b8381101561060f5780820151818401526020810190506105f4565b50505050905090810190601f16801561063c5780820380516001836020036101000a031916815260200191505b509250505060405180910390f35b34801561065657600080fd5b5061065f61193c565b6040518082815260200191505060405180910390f35b34801561068157600080fd5b506106c0600480360381019080803573ffffffffffffffffffffffffffffffffffffffff16906020019092919080359060200190929190505050611942565b604051808215151515815260200191505060405180910390f35b3480156106e657600080fd5b5061071b600480360381019080803573ffffffffffffffffffffffffffffffffffffffff169060200190929190505050611ae2565b005b34801561072957600080fd5b50610732611c52565b604051808273ffffffffffffffffffffffffffffffffffffffff1673ffffffffffffffffffffffffffffffffffffffff16815260200191505060405180910390f35b34801561078057600080fd5b5061079f60048036038101908080359060200190929190505050611c78565b604051808215151515815260200191505060405180910390f35b3480156107c557600080fd5b506107ce611d20565b005b3480156107dc57600080fd5b5061081b60048036038101908080359060200190929190803573ffffffffffffffffffffffffffffffffffffffff169060200190929190505050612621565b6040518082815260200191505060405180910390f35b34801561083d57600080fd5b50610872600480360381019080803573ffffffffffffffffffffffffffffffffffffffff169060200190929190505050612803565b005b60008060009054906101000a900473ffffffffffffffffffffffffffffffffffffffff1673ffffffffffffffffffffffffffffffffffffffff163373ffffffffffffffffffffffffffffffffffffffff161415156108ce57fe5b600082141515156108de57600080fd5b6108e98260026128fb565b15156108f157fe5b6108fa8261306a565b151561090257fe5b60019050919050565b60026020528060005260406000206000915054906101000a900473ffffffffffffffffffffffffffffffffffffffff1681565b6000600460009054906101000a900473ffffffffffffffffffffffffffffffffffffffff1673ffffffffffffffffffffffffffffffffffffffff1663f5962e2d836040518263ffffffff167c010000000000000000000000000000000000000000000000000000000002815260040180828152602001915050602060405180830381600087803b1580156109d157600080fd5b505af11580156109e5573d6000803e3d6000fd5b505050506040513d60208110156109fb57600080fd5b81019080805190602001909291905050509050919050565b6000600380549050905090565b6000600460009054906101000a900473ffffffffffffffffffffffffffffffffffffffff1673ffffffffffffffffffffffffffffffffffffffff16639ca08831836040518263ffffffff167c010000000000000000000000000000000000000000000000000000000002815260040180828152602001915050602060405180830381600087803b158015610ab357600080fd5b505af1158015610ac7573d6000803e3d6000fd5b505050506040513d6020811015610add57600080fd5b81019080805190602001909291905050509050919050565b6000600460009054906101000a900473ffffffffffffffffffffffffffffffffffffffff1673ffffffffffffffffffffffffffffffffffffffff16631ece83b0836040518263ffffffff167c010000000000000000000000000000000000000000000000000000000002815260040180828152602001915050602060405180830381600087803b158015610b8857600080fd5b505af1158015610b9c573d6000803e3d6000fd5b505050506040513d6020811015610bb257600080fd5b81019080805190602001909291905050509050919050565b600260003373ffffffffffffffffffffffffffffffffffffffff1673ffffffffffffffffffffffffffffffffffffffff16815260200190815260200160002060009054906101000a900473ffffffffffffffffffffffffffffffffffffffff1673ffffffffffffffffffffffffffffffffffffffff163073ffffffffffffffffffffffffffffffffffffffff16141515610c6057fe5b600460009054906101000a900473ffffffffffffffffffffffffffffffffffffffff1673ffffffffffffffffffffffffffffffffffffffff1663237c491983836040518363ffffffff167c01000000000000000000000000000000000000000000000000000000000281526004018083815260200180602001828103825283818151815260200191508051906020019080838360005b83811015610d11578082015181840152602081019050610cf6565b50505050905090810190601f168015610d3e5780820380516001836020036101000a031916815260200191505b509350505050600060405180830381600087803b158015610d5e57600080fd5b505af1158015610d72573d6000803e3d6000fd5b505050505050565b6000600260003373ffffffffffffffffffffffffffffffffffffffff1673ffffffffffffffffffffffffffffffffffffffff16815260200190815260200160002060009054906101000a900473ffffffffffffffffffffffffffffffffffffffff1673ffffffffffffffffffffffffffffffffffffffff163073ffffffffffffffffffffffffffffffffffffffff16141515610e1257fe5b600460009054906101000a900473ffffffffffffffffffffffffffffffffffffffff1673ffffffffffffffffffffffffffffffffffffffff1663192cc2d5600060026000809054906101000a900473ffffffffffffffffffffffffffffffffffffffff166040518463ffffffff167c010000000000000000000000000000000000000000000000000000000002815260040180848152602001806020018481526020018373ffffffffffffffffffffffffffffffffffffffff1673ffffffffffffffffffffffffffffffffffffffff168152602001828103825260078152602001807f537562506f6f6c00000000000000000000000000000000000000000000000000815250602001945050505050602060405180830381600087803b158015610f3b57600080fd5b505af1158015610f4f573d6000803e3d6000fd5b505050506040513d6020811015610f6557600080fd5b8101908080519060200190929190505050905060008114151515610f8857600080fd5b610f938160016128fb565b1515610f9b57fe5b90565b6000809054906101000a900473ffffffffffffffffffffffffffffffffffffffff1673ffffffffffffffffffffffffffffffffffffffff163373ffffffffffffffffffffffffffffffffffffffff16141515610ff657fe5b80600260003073ffffffffffffffffffffffffffffffffffffffff1673ffffffffffffffffffffffffffffffffffffffff16815260200190815260200160002060006101000a81548173ffffffffffffffffffffffffffffffffffffffff021916908373ffffffffffffffffffffffffffffffffffffffff1602179055507f88477ef2e6ee708c15e490fc6b373fe9ca955c32fc8679cd5b820323f20e2b9f3082604051808373ffffffffffffffffffffffffffffffffffffffff1673ffffffffffffffffffffffffffffffffffffffff1681526020018273ffffffffffffffffffffffffffffffffffffffff1673ffffffffffffffffffffffffffffffffffffffff1681526020019250505060405180910390a150565b600160009054906101000a900473ffffffffffffffffffffffffffffffffffffffff1673ffffffffffffffffffffffffffffffffffffffff163373ffffffffffffffffffffffffffffffffffffffff1614151561116a57600080fd5b600160009054906101000a900473ffffffffffffffffffffffffffffffffffffffff1673ffffffffffffffffffffffffffffffffffffffff166000809054906101000a900473ffffffffffffffffffffffffffffffffffffffff1673ffffffffffffffffffffffffffffffffffffffff167f343765429aea5a34b3ff6a3785a98a5abb2597aca87bfbb58632c173d585373a60405160405180910390a3600160009054906101000a900473ffffffffffffffffffffffffffffffffffffffff166000806101000a81548173ffffffffffffffffffffffffffffffffffffffff021916908373ffffffffffffffffffffffffffffffffffffffff1602179055506000600160006101000a81548173ffffffffffffffffffffffffffffffffffffffff021916908373ffffffffffffffffffffffffffffffffffffffff160217905550565b600260003373ffffffffffffffffffffffffffffffffffffffff1673ffffffffffffffffffffffffffffffffffffffff16815260200190815260200160002060009054906101000a900473ffffffffffffffffffffffffffffffffffffffff1673ffffffffffffffffffffffffffffffffffffffff163073ffffffffffffffffffffffffffffffffffffffff1614151561134357fe5b600460009054906101000a900473ffffffffffffffffffffffffffffffffffffffff1673ffffffffffffffffffffffffffffffffffffffff1663cedf5f4a83836040518363ffffffff167c01000000000000000000000000000000000000000000000000000000000281526004018083815260200182815260200192505050600060405180830381600087803b1580156113dc57600080fd5b505af11580156113f0573d6000803e3d6000fd5b505050505050565b6000809054906101000a900473ffffffffffffffffffffffffffffffffffffffff1681565b600460009054906101000a900473ffffffffffffffffffffffffffffffffffffffff1681565b6060600260003373ffffffffffffffffffffffffffffffffffffffff1673ffffffffffffffffffffffffffffffffffffffff16815260200190815260200160002060009054906101000a900473ffffffffffffffffffffffffffffffffffffffff1673ffffffffffffffffffffffffffffffffffffffff163073ffffffffffffffffffffffffffffffffffffffff161415156114db57fe5b600460009054906101000a900473ffffffffffffffffffffffffffffffffffffffff1673ffffffffffffffffffffffffffffffffffffffff16638462151c836040518263ffffffff167c0100000000000000000000000000000000000000000000000000000000028152600401808273ffffffffffffffffffffffffffffffffffffffff1673ffffffffffffffffffffffffffffffffffffffff168152602001915050600060405180830381600087803b15801561159857600080fd5b505af11580156115ac573d6000803e3d6000fd5b505050506040513d6000823e3d601f19601f8201168201806040525060208110156115d657600080fd5b8101908080516401000000008111156115ee57600080fd5b8281019050602081018481111561160457600080fd5b815185602082028301116401000000008211171561162157600080fd5b50509291905050509050919050565b600260003373ffffffffffffffffffffffffffffffffffffffff1673ffffffffffffffffffffffffffffffffffffffff16815260200190815260200160002060009054906101000a900473ffffffffffffffffffffffffffffffffffffffff1673ffffffffffffffffffffffffffffffffffffffff163073ffffffffffffffffffffffffffffffffffffffff161415156116c657fe5b600460009054906101000a900473ffffffffffffffffffffffffffffffffffffffff1673ffffffffffffffffffffffffffffffffffffffff16638dc63d1983836040518363ffffffff167c01000000000000000000000000000000000000000000000000000000000281526004018083815260200182815260200192505050600060405180830381600087803b15801561175f57600080fd5b505af1158015611773573d6000803e3d6000fd5b505050505050565b6060600260003373ffffffffffffffffffffffffffffffffffffffff1673ffffffffffffffffffffffffffffffffffffffff16815260200190815260200160002060009054906101000a900473ffffffffffffffffffffffffffffffffffffffff1673ffffffffffffffffffffffffffffffffffffffff163073ffffffffffffffffffffffffffffffffffffffff1614151561181357fe5b600460009054906101000a900473ffffffffffffffffffffffffffffffffffffffff1673ffffffffffffffffffffffffffffffffffffffff16636be9a6f1836040518263ffffffff167c010000000000000000000000000000000000000000000000000000000002815260040180828152602001915050600060405180830381600087803b1580156118a457600080fd5b505af11580156118b8573d6000803e3d6000fd5b505050506040513d6000823e3d601f19601f8201168201806040525060208110156118e257600080fd5b8101908080516401000000008111156118fa57600080fd5b8281019050602081018481111561191057600080fd5b815185600182028301116401000000008211171561192d57600080fd5b50509291905050509050919050565b60055481565b6000600260003373ffffffffffffffffffffffffffffffffffffffff1673ffffffffffffffffffffffffffffffffffffffff16815260200190815260200160002060009054906101000a900473ffffffffffffffffffffffffffffffffffffffff1673ffffffffffffffffffffffffffffffffffffffff163073ffffffffffffffffffffffffffffffffffffffff161415156119da57fe5b600460009054906101000a900473ffffffffffffffffffffffffffffffffffffffff1673ffffffffffffffffffffffffffffffffffffffff1663818d4b5d84846040518363ffffffff167c0100000000000000000000000000000000000000000000000000000000028152600401808373ffffffffffffffffffffffffffffffffffffffff1673ffffffffffffffffffffffffffffffffffffffff16815260200182815260200192505050602060405180830381600087803b158015611a9f57600080fd5b505af1158015611ab3573d6000803e3d6000fd5b505050506040513d6020811015611ac957600080fd5b8101908080519060200190929190505050905092915050565b6000809054906101000a900473ffffffffffffffffffffffffffffffffffffffff1673ffffffffffffffffffffffffffffffffffffffff163373ffffffffffffffffffffffffffffffffffffffff16141515611b3a57fe5b30600260008373ffffffffffffffffffffffffffffffffffffffff1673ffffffffffffffffffffffffffffffffffffffff16815260200190815260200160002060006101000a81548173ffffffffffffffffffffffffffffffffffffffff021916908373ffffffffffffffffffffffffffffffffffffffff1602179055507f25245aeb6dcc1afb9053581af7e6b984f2191e80b27c263b11c45d821a566a538130604051808373ffffffffffffffffffffffffffffffffffffffff1673ffffffffffffffffffffffffffffffffffffffff1681526020018273ffffffffffffffffffffffffffffffffffffffff1673ffffffffffffffffffffffffffffffffffffffff1681526020019250505060405180910390a150565b600160009054906101000a900473ffffffffffffffffffffffffffffffffffffffff1681565b6000600260003373ffffffffffffffffffffffffffffffffffffffff1673ffffffffffffffffffffffffffffffffffffffff16815260200190815260200160002060009054906101000a900473ffffffffffffffffffffffffffffffffffffffff1673ffffffffffffffffffffffffffffffffffffffff163073ffffffffffffffffffffffffffffffffffffffff16141515611d1057fe5b611d1982613c80565b9050919050565b6000806000611d2d613d1d565b611d35613d1d565b611d3d613d1d565b6000809054906101000a900473ffffffffffffffffffffffffffffffffffffffff1673ffffffffffffffffffffffffffffffffffffffff163373ffffffffffffffffffffffffffffffffffffffff16141515611d9557fe5b600460009054906101000a900473ffffffffffffffffffffffffffffffffffffffff1673ffffffffffffffffffffffffffffffffffffffff1663192cc2d5678ac7230489e8000060016000809054906101000a900473ffffffffffffffffffffffffffffffffffffffff166040518463ffffffff167c010000000000000000000000000000000000000000000000000000000002815260040180848152602001806020018481526020018373ffffffffffffffffffffffffffffffffffffffff1673ffffffffffffffffffffffffffffffffffffffff168152602001828103825260098152602001807f5375706572506f6f6c0000000000000000000000000000000000000000000000815250602001945050505050602060405180830381600087803b158015611ec557600080fd5b505af1158015611ed9573d6000803e3d6000fd5b505050506040513d6020811015611eef57600080fd5b81019080805190602001909291905050509550600460009054906101000a900473ffffffffffffffffffffffffffffffffffffffff1673ffffffffffffffffffffffffffffffffffffffff1663192cc2d5600060016000809054906101000a900473ffffffffffffffffffffffffffffffffffffffff166040518463ffffffff167c010000000000000000000000000000000000000000000000000000000002815260040180848152602001806020018481526020018373ffffffffffffffffffffffffffffffffffffffff1673ffffffffffffffffffffffffffffffffffffffff168152602001828103825260048152602001807f506f6f6c00000000000000000000000000000000000000000000000000000000815250602001945050505050602060405180830381600087803b15801561202b57600080fd5b505af115801561203f573d6000803e3d6000fd5b505050506040513d602081101561205557600080fd5b81019080805190602001909291905050509450600460009054906101000a900473ffffffffffffffffffffffffffffffffffffffff1673ffffffffffffffffffffffffffffffffffffffff1663192cc2d5600060026000809054906101000a900473ffffffffffffffffffffffffffffffffffffffff166040518463ffffffff167c010000000000000000000000000000000000000000000000000000000002815260040180848152602001806020018481526020018373ffffffffffffffffffffffffffffffffffffffff1673ffffffffffffffffffffffffffffffffffffffff168152602001828103825260078152602001807f537562506f6f6c00000000000000000000000000000000000000000000000000815250602001945050505050602060405180830381600087803b15801561219157600080fd5b505af11580156121a5573d6000803e3d6000fd5b505050506040513d60208110156121bb57600080fd5b81019080805190602001909291905050509350600460009054906101000a900473ffffffffffffffffffffffffffffffffffffffff1673ffffffffffffffffffffffffffffffffffffffff166317b9ebec86886040518363ffffffff167c01000000000000000000000000000000000000000000000000000000000281526004018083815260200182815260200192505050600060405180830381600087803b15801561226757600080fd5b505af115801561227b573d6000803e3d6000fd5b50505050600460009054906101000a900473ffffffffffffffffffffffffffffffffffffffff1673ffffffffffffffffffffffffffffffffffffffff166317b9ebec85876040518363ffffffff167c01000000000000000000000000000000000000000000000000000000000281526004018083815260200182815260200192505050600060405180830381600087803b15801561231857600080fd5b505af115801561232c573d6000803e3d6000fd5b5050505060c060405190810160405280600060ff16815260200160018152602001600a815260200160018152602001878152602001600081525092506003839080600181540180825580915050906001820390600052602060002090600602016000909192909190915060008201518160000160006101000a81548160ff021916908360ff1602179055506020820151816001015560408201518160020155606082015181600301556080820151816004015560a0820151816005015550505060c060405190810160405280600160ff168152602001600a81526020016103e8815260200160018152602001868152602001600081525091506003829080600181540180825580915050906001820390600052602060002090600602016000909192909190915060008201518160000160006101000a81548160ff021916908360ff1602179055506020820151816001015560408201518160020155606082015181600301556080820151816004015560a0820151816005015550505060c060405190810160405280600260ff1681526020016103e881526020016103e8815260200160018152602001858152602001606481525090506003819080600181540180825580915050906001820390600052602060002090600602016000909192909190915060008201518160000160006101000a81548160ff021916908360ff1602179055506020820151816001015560408201518160020155606082015181600301556080820151816004015560a08201518160050155505050600460009054906101000a900473ffffffffffffffffffffffffffffffffffffffff1673ffffffffffffffffffffffffffffffffffffffff1663cedf5f4a6000806040518363ffffffff167c01000000000000000000000000000000000000000000000000000000000281526004018083815260200182815260200192505050600060405180830381600087803b15801561260157600080fd5b505af1158015612615573d6000803e3d6000fd5b50505050505050505050565b6000600260003373ffffffffffffffffffffffffffffffffffffffff1673ffffffffffffffffffffffffffffffffffffffff16815260200190815260200160002060009054906101000a900473ffffffffffffffffffffffffffffffffffffffff1673ffffffffffffffffffffffffffffffffffffffff163073ffffffffffffffffffffffffffffffffffffffff161415156126b957fe5b600460009054906101000a900473ffffffffffffffffffffffffffffffffffffffff1673ffffffffffffffffffffffffffffffffffffffff1663192cc2d5846000856040518463ffffffff167c010000000000000000000000000000000000000000000000000000000002815260040180848152602001806020018481526020018373ffffffffffffffffffffffffffffffffffffffff1673ffffffffffffffffffffffffffffffffffffffff168152602001828103825260078152602001807f4c6f79616c747900000000000000000000000000000000000000000000000000815250602001945050505050602060405180830381600087803b1580156127c057600080fd5b505af11580156127d4573d6000803e3d6000fd5b505050506040513d60208110156127ea57600080fd5b8101908080519060200190929190505050905092915050565b6000809054906101000a900473ffffffffffffffffffffffffffffffffffffffff1673ffffffffffffffffffffffffffffffffffffffff163373ffffffffffffffffffffffffffffffffffffffff1614151561285b57fe5b6000809054906101000a900473ffffffffffffffffffffffffffffffffffffffff1673ffffffffffffffffffffffffffffffffffffffff168173ffffffffffffffffffffffffffffffffffffffff16141515156128b757600080fd5b80600160006101000a81548173ffffffffffffffffffffffffffffffffffffffff021916908373ffffffffffffffffffffffffffffffffffffffff16021790555050565b600080600080600061290d8787613cbe565b9350600460009054906101000a900473ffffffffffffffffffffffffffffffffffffffff1673ffffffffffffffffffffffffffffffffffffffff16636595f73a856040518263ffffffff167c010000000000000000000000000000000000000000000000000000000002815260040180828152602001915050602060405180830381600087803b1580156129a057600080fd5b505af11580156129b4573d6000803e3d6000fd5b505050506040513d60208110156129ca57600080fd5b810190808051906020019092919050505092506129e78787613cec565b915081831015612af857600460009054906101000a900473ffffffffffffffffffffffffffffffffffffffff1673ffffffffffffffffffffffffffffffffffffffff166317b9ebec88866040518363ffffffff167c01000000000000000000000000000000000000000000000000000000000281526004018083815260200182815260200192505050600060405180830381600087803b158015612a8a57600080fd5b505af1158015612a9e573d6000803e3d6000fd5b505050507f69186e91a26c2cd1f67397df408ddeb0db9249dbd6e2a428ad8ae0d59ba3bc88878588604051808481526020018381526020018260ff1660ff168152602001935050505060405180910390a160019450613060565b60038660ff16815481101515612b0a57fe5b90600052602060002090600602016001015460038760ff16815481101515612b2e57fe5b9060005260206000209060060201600301541415612b4f5760009450613060565b600460009054906101000a900473ffffffffffffffffffffffffffffffffffffffff1673ffffffffffffffffffffffffffffffffffffffff1663192cc2d56000600460009054906101000a900473ffffffffffffffffffffffffffffffffffffffff1673ffffffffffffffffffffffffffffffffffffffff16636be9a6f1886040518263ffffffff167c010000000000000000000000000000000000000000000000000000000002815260040180828152602001915050600060405180830381600087803b158015612c2057600080fd5b505af1158015612c34573d6000803e3d6000fd5b505050506040513d6000823e3d601f19601f820116820180604052506020811015612c5e57600080fd5b810190808051640100000000811115612c7657600080fd5b82810190506020810184811115612c8c57600080fd5b8151856001820283011164010000000082111715612ca957600080fd5b5050929190505050600460009054906101000a900473ffffffffffffffffffffffffffffffffffffffff1673ffffffffffffffffffffffffffffffffffffffff1663f884cd25896040518263ffffffff167c010000000000000000000000000000000000000000000000000000000002815260040180828152602001915050602060405180830381600087803b158015612d4257600080fd5b505af1158015612d56573d6000803e3d6000fd5b505050506040513d6020811015612d6c57600080fd5b81019080805190602001909291905050506000809054906101000a900473ffffffffffffffffffffffffffffffffffffffff166040518563ffffffff167c010000000000000000000000000000000000000000000000000000000002815260040180858152602001806020018481526020018373ffffffffffffffffffffffffffffffffffffffff1673ffffffffffffffffffffffffffffffffffffffff168152602001828103825285818151815260200191508051906020019080838360005b83811015612e48578082015181840152602081019050612e2d565b50505050905090810190601f168015612e755780820380516001836020036101000a031916815260200191505b5095505050505050602060405180830381600087803b158015612e9757600080fd5b505af1158015612eab573d6000803e3d6000fd5b505050506040513d6020811015612ec157600080fd5b8101908080519060200190929190505050905060008114151561305b57612eeb81600188036128fb565b1561305257600460009054906101000a900473ffffffffffffffffffffffffffffffffffffffff1673ffffffffffffffffffffffffffffffffffffffff166317b9ebec88836040518363ffffffff167c01000000000000000000000000000000000000000000000000000000000281526004018083815260200182815260200192505050600060405180830381600087803b158015612f8957600080fd5b505af1158015612f9d573d6000803e3d6000fd5b505050507f69186e91a26c2cd1f67397df408ddeb0db9249dbd6e2a428ad8ae0d59ba3bc88878288604051808481526020018381526020018260ff1660ff168152602001935050505060405180910390a18060038760ff1681548110151561300157fe5b90600052602060002090600602016004018190555060038660ff1681548110151561302857fe5b90600052602060002090600602016003016000815480929190600101919050555060019450613060565b60009450613060565b600094505b5050505092915050565b6000806000806000806000806000808a1415151561308757600080fd5b600160055403600460009054906101000a900473ffffffffffffffffffffffffffffffffffffffff1673ffffffffffffffffffffffffffffffffffffffff1663080e035d8c6040518263ffffffff167c010000000000000000000000000000000000000000000000000000000002815260040180828152602001915050602060405180830381600087803b15801561311e57600080fd5b505af1158015613132573d6000803e3d6000fd5b505050506040513d602081101561314857600080fd5b810190808051906020019092919050505014151561316557600080fd5b600460009054906101000a900473ffffffffffffffffffffffffffffffffffffffff1673ffffffffffffffffffffffffffffffffffffffff16639ca088318b6040518263ffffffff167c010000000000000000000000000000000000000000000000000000000002815260040180828152602001915050602060405180830381600087803b1580156131f657600080fd5b505af115801561320a573d6000803e3d6000fd5b505050506040513d602081101561322057600080fd5b810190808051906020019092919050505097506000881415151561324357600080fd5b600460009054906101000a900473ffffffffffffffffffffffffffffffffffffffff1673ffffffffffffffffffffffffffffffffffffffff16639ca08831896040518263ffffffff167c010000000000000000000000000000000000000000000000000000000002815260040180828152602001915050602060405180830381600087803b1580156132d457600080fd5b505af11580156132e8573d6000803e3d6000fd5b505050506040513d60208110156132fe57600080fd5b810190808051906020019092919050505096506000871415151561332157600080fd5b600460009054906101000a900473ffffffffffffffffffffffffffffffffffffffff1673ffffffffffffffffffffffffffffffffffffffff16639ca08831886040518263ffffffff167c010000000000000000000000000000000000000000000000000000000002815260040180828152602001915050602060405180830381600087803b1580156133b257600080fd5b505af11580156133c6573d6000803e3d6000fd5b505050506040513d60208110156133dc57600080fd5b81019080805190602001909291905050509550600086141515156133ff57600080fd5b600460009054906101000a900473ffffffffffffffffffffffffffffffffffffffff1673ffffffffffffffffffffffffffffffffffffffff1663f5962e2d8b6040518263ffffffff167c010000000000000000000000000000000000000000000000000000000002815260040180828152602001915050602060405180830381600087803b15801561349057600080fd5b505af11580156134a4573d6000803e3d6000fd5b505050506040513d60208110156134ba57600080fd5b810190808051906020019092919050505094506064600360028154811015156134df57fe5b90600052602060002090600602016005015486028115156134fc57fe5b04935060646003600181548110151561351157fe5b906000526020600020906006020160050154860281151561352e57fe5b04925060646003600081548110151561354357fe5b906000526020600020906006020160050154860281151561356057fe5b049150818385870303039050600460009054906101000a900473ffffffffffffffffffffffffffffffffffffffff1673ffffffffffffffffffffffffffffffffffffffff1663cedf5f4a8986600460009054906101000a900473ffffffffffffffffffffffffffffffffffffffff1673ffffffffffffffffffffffffffffffffffffffff1663f5962e2d8d6040518263ffffffff167c010000000000000000000000000000000000000000000000000000000002815260040180828152602001915050602060405180830381600087803b15801561363d57600080fd5b505af1158015613651573d6000803e3d6000fd5b505050506040513d602081101561366757600080fd5b8101908080519060200190929190505050016040518363ffffffff167c01000000000000000000000000000000000000000000000000000000000281526004018083815260200182815260200192505050600060405180830381600087803b1580156136d257600080fd5b505af11580156136e6573d6000803e3d6000fd5b50505050600460009054906101000a900473ffffffffffffffffffffffffffffffffffffffff1673ffffffffffffffffffffffffffffffffffffffff1663cedf5f4a8885600460009054906101000a900473ffffffffffffffffffffffffffffffffffffffff1673ffffffffffffffffffffffffffffffffffffffff1663f5962e2d8c6040518263ffffffff167c010000000000000000000000000000000000000000000000000000000002815260040180828152602001915050602060405180830381600087803b1580156137bb57600080fd5b505af11580156137cf573d6000803e3d6000fd5b505050506040513d60208110156137e557600080fd5b8101908080519060200190929190505050016040518363ffffffff167c01000000000000000000000000000000000000000000000000000000000281526004018083815260200182815260200192505050600060405180830381600087803b15801561385057600080fd5b505af1158015613864573d6000803e3d6000fd5b50505050600460009054906101000a900473ffffffffffffffffffffffffffffffffffffffff1673ffffffffffffffffffffffffffffffffffffffff1663cedf5f4a8784600460009054906101000a900473ffffffffffffffffffffffffffffffffffffffff1673ffffffffffffffffffffffffffffffffffffffff1663f5962e2d8b6040518263ffffffff167c010000000000000000000000000000000000000000000000000000000002815260040180828152602001915050602060405180830381600087803b15801561393957600080fd5b505af115801561394d573d6000803e3d6000fd5b505050506040513d602081101561396357600080fd5b8101908080519060200190929190505050016040518363ffffffff167c01000000000000000000000000000000000000000000000000000000000281526004018083815260200182815260200192505050600060405180830381600087803b1580156139ce57600080fd5b505af11580156139e2573d6000803e3d6000fd5b50505050600460009054906101000a900473ffffffffffffffffffffffffffffffffffffffff1673ffffffffffffffffffffffffffffffffffffffff1663cedf5f4a600083600460009054906101000a900473ffffffffffffffffffffffffffffffffffffffff1673ffffffffffffffffffffffffffffffffffffffff1663f5962e2d60006040518263ffffffff167c010000000000000000000000000000000000000000000000000000000002815260040180828152602001915050602060405180830381600087803b158015613ab957600080fd5b505af1158015613acd573d6000803e3d6000fd5b505050506040513d6020811015613ae357600080fd5b8101908080519060200190929190505050016040518363ffffffff167c01000000000000000000000000000000000000000000000000000000000281526004018083815260200182815260200192505050600060405180830381600087803b158015613b4e57600080fd5b505af1158015613b62573d6000803e3d6000fd5b50505050600460009054906101000a900473ffffffffffffffffffffffffffffffffffffffff1673ffffffffffffffffffffffffffffffffffffffff1663cedf5f4a8b60006040518363ffffffff167c01000000000000000000000000000000000000000000000000000000000281526004018083815260200182815260200192505050600060405180830381600087803b158015613c0057600080fd5b505af1158015613c14573d6000803e3d6000fd5b505050507fcfd3c3fcdcb63bcee48ff9a9ec28351afef5ba4fc9b5a8f46d5aa65565a3b1a38a83858785604051808681526020018581526020018481526020018381526020018281526020019550505050505060405180910390a1600198505050505050505050919050565b6000808214151515613c9157600080fd5b613c9c8260026128fb565b1515613ca457fe5b613cad8261306a565b1515613cb557fe5b60019050919050565b600060038260ff16815481101515613cd257fe5b906000526020600020906006020160040154905092915050565b6000600160038360ff16815481101515613d0257fe5b90600052602060002090600602016002015403905092915050565b60c060405190810160405280600060ff168152602001600081526020016000815260200160008152602001600081526020016000815250905600a165627a7a723058209dab46c7b7dee6cfbf0a5fd0761e4e2201c7da41c6461fd9540af22733bce7850029",
  "source": "// \n// MIT License\n// \n// Copyright (c) 2018 REGA Risk Sharing\n//   \n// Permission is hereby granted, free of charge, to any person obtaining a copy\n// of this software and associated documentation files (the \"Software\"), to deal\n// in the Software without restriction, including without limitation the rights\n// to use, copy, modify, merge, publish, distribute, sublicense, and/or sell\n// copies of the Software, and to permit persons to whom the Software is\n// furnished to do so, subject to the following conditions:\n// \n// The above copyright notice and this permission notice shall be included in all\n// copies or substantial portions of the Software.\n// \n// THE SOFTWARE IS PROVIDED \"AS IS\", WITHOUT WARRANTY OF ANY KIND, EXPRESS OR\n// IMPLIED, INCLUDING BUT NOT LIMITED TO THE WARRANTIES OF MERCHANTABILITY,\n// FITNESS FOR A PARTICULAR PURPOSE AND NONINFRINGEMENT. IN NO EVENT SHALL THE\n// AUTHORS OR COPYRIGHT HOLDERS BE LIABLE FOR ANY CLAIM, DAMAGES OR OTHER\n// LIABILITY, WHETHER IN AN ACTION OF CONTRACT, TORT OR OTHERWISE, ARISING FROM,\n// OUT OF OR IN CONNECTION WITH THE SOFTWARE OR THE USE OR OTHER DEALINGS IN THE\n// SOFTWARE.\n// \n// Author: Sergei Sevriugin\n// Version: 0.0.2 TokenLoyalty\n//  \n\npragma solidity ^0.4.17;\n\nimport \"./interfaces/ITokenContainer.sol\";\nimport \"./interfaces/ITokenPool.sol\";\nimport \"./Owned.sol\";\n\n/// TokenPool is TokenContainer with 4 level pool structure: \n/// Super Pool (Level 0), Pool (Level 1), Sub Pool (Level 2) and Token (Level 3)\n/// Level       Container / Member\n/// ------------------------------------------------\n///   0         SuperPool\n///   1              |______Pool\n///   2                      |______SubPool\n///   3                                |_______Token\ncontract TokenPool is ITokenPool, Owned() {\n    /// TokenPool insertPool event\n    /// @param id inserted token ID\n    /// @param poolId pool ID\n    /// @param level pool level\n    event InsertPool(uint256 id, uint256 poolId, uint8 level);\n    /// TokenPool value distribution event\n    /// @param id NFT token ID for value distribution \n    /// @param superPoolValue SuperPool Share\n    /// @param poolValue Pool Share\n    /// @param subPoolValue SubPool Share\n    /// @param comission Comission = the rest after all pools \n    event DistributeValue(uint256 id, uint256 superPoolValue, uint256 poolValue, uint256 subPoolValue, uint256 comission);\n    /// TokenPool Second Tier Call event\n    /// @param id NFT token ID that emits event\n    /// @param value 2nd tier capital call value\n    event SecondTierCall(uint256 id, uint256 value);\n    /// TokenPool ShortOfFunds event\n    /// @param id NFT token ID that emits event\n    /// @param poolId pool ID that can't pay\n    /// @param value that pool can't pay\n    /// @param level pool level that can't \n    event ShortOfFunds(uint256 id, uint256 poolId, uint256 value, uint8 level);\n    /// TokenPool Payment Value event\n    /// @param id NFT token ID that emits event\n    /// @param value paid value\n    /// @param level pool level that paid\n    event PaymentValue(uint256 id, uint256 value, uint8 level);\n    /// @dev Pool defines pool structure\n    /// @param level Pool level: 0,1,2,3\n    /// @param maxNumber Maximum number of pools on this lavel\n    /// @param maxMember Maximum number of members for the pool\n    /// @param number Pool number for this level\n    /// @param last NFT ID for last availible pool (with member capacity)\n    struct Pool {\n        uint8   level;      // Pool level: 0,1,2,3\n        uint256 maxNumber;  // Maximum number of pools on this lavel\n        uint256 maxMember;  // Maximum number of members for the pool\n        uint256 number;     // Pool number for this level\n        uint256 last;       // NFT ID for last availible pool (with member capacity)\n        uint256 share;      // Pool share from token investment\n    }\n    /// @dev Pool structure \n    Pool[] pools;           // Pool structure\n    ITokenContainer public container;\n    uint256 public maxLevel;\n    /// inset new member in the pool\n    /// @param _id NFT token ID to inserr\n    /// @param _level Pool level to insert\n    /// @return TRUE if insert is done \n    function _getParent(uint256 _id, uint8 _level) internal view returns (uint256 parentId) {\n        // by default returns pools[_level].last but must be overloaded to use score to calculate right pool\n        _id;\n        parentId = pools[_level].last;\n    }\n    function _getCapacity(uint256 _id, uint8 _level) internal view returns (uint256 parentId) {\n        // by default returns pools[_level].maxMember - 1; but can be overloaded to use score to calculate right pool capacity\n        _id;\n        parentId = pools[_level].maxMember - 1;\n    }\n    function _insertPool(uint256 _id, uint8 _level) internal returns (bool) {\n        uint256 parentId = _getParent(_id, _level); // pool NFT token ID\n        uint256 size = container.getPoolSize(parentId);      // current pool size\n        uint256 max = _getCapacity(_id, _level);    // max pool size - 1\n        // check if there is a place to insert \n        if (size < max) {\n            // simple insert\n            container.addToken(_id, parentId); // add to pool \n            emit InsertPool(_id, parentId, _level); // event \n            return true;\n        }\n        else {\n            // no capacity in the current pool, so, need to add new pool\n            // check if it's possible\n            if(pools[_level].number == pools[_level].maxNumber) {\n                // no capacity to add new pool at this lavel\n                return false;\n            }\n            else {\n                // make a copy from the last pool\n                uint newPool = container.createNFT(uint256(0), container.getNFTMetadata(parentId), container.getNFTKind(parentId), owner);\n                if (newPool != uint(0)) { \n                    // insert pool in the pool structure\n                    if (_insertPool(newPool, _level-1)) {\n                        // insert token to the new pool\n                        container.addToken(_id, newPool); // add to pool\n                        emit InsertPool(_id, newPool, _level); // event \n                        // record new pool data in the structure \n                        pools[_level].last = newPool; // new pool is last one\n                        pools[_level].number++;\n                        // new pool and member are inserted \n                        return true;\n                    }\n                    else {\n                        return false;\n                    }\n                }\n                else {\n                    return false;\n                }\n            }\n        }\n    }\n    /// distribute value of the token _id to pools\n    /// @dev make it as simmple as possible for fixed pool staructure\n    /// @param _id NFT token ID to distribute value\n    /// @return TRUE if distribution is complited \n    function _distributeValue(uint256 _id) internal returns (bool) {\n        // need to make sure that _id is terminal node in the structure \n        require(_id != uint256(0));\n        require(container.getNFTLevel(_id) == maxLevel - 1);\n        // now we can check then the path has all pools\n        uint256 subPoolId = container.tokenIndexToPoolToken(_id);\n        require(subPoolId != uint256(0)); // SubPool\n        uint256 poolId = container.tokenIndexToPoolToken(subPoolId);\n        require(poolId != uint256(0)); // Pool\n        uint256 superPoolId = container.tokenIndexToPoolToken(poolId);\n        require(superPoolId != uint256(0)); // SuperPool\n        // calculate values to distribute based of pool structure shares\n        uint256 value = container.getNFTValue(_id);\n        uint256 subPoolValue = value * pools[2].share / 100;\n        uint256 poolValue = value * pools[1].share / 100;\n        uint256 superPoolValue = value * pools[0].share / 100;\n        uint256 commission = value - subPoolValue - poolValue - superPoolValue;\n        \n        // ready to distribute\n        container.setNFTValue(subPoolId, container.getNFTValue(subPoolId) + subPoolValue);\n        container.setNFTValue(poolId, container.getNFTValue(poolId) + poolValue);\n        container.setNFTValue(superPoolId, container.getNFTValue(superPoolId) + superPoolValue);\n        \n        // we will keep comission in the reserved token with ID = 0\n        container.setNFTValue(uint256(0), container.getNFTValue(uint256(0)) + commission);\n    \n        // the distribution is done 0 --> _id value\n        container.setNFTValue(_id, uint256(0));\n        emit DistributeValue(_id, superPoolValue, poolValue, subPoolValue, commission);\n        return true;\n    }\n    /// insert token in pool structure\n    /// @param _id NFT token ID to insert\n    /// @return TRUE if insert is done \n    function insertPool(uint256 _id) ownerOnly public returns(bool) {\n        require(_id != uint256(0));\n        // call internal function\n        assert(_insertPool(_id, 2));\n        // if inserted then make value distribution \n        assert(_distributeValue(_id));\n        return true;\n    }\n    function insertSubPool() connectorOnly public returns(uint256 subPoolId) {\n        subPoolId = container.createNFT(uint256(0), \"SubPool\", uint256(2), owner);\n        require(subPoolId != uint256(0));\n        // call internal function\n        assert(_insertPool(subPoolId, 1));\n    }\n    /// insert token in pool structure\n    /// @param _id NFT token ID to insert\n    /// @return TRUE if insert is done \n    function _addTokenToSubPool(uint256 _id) internal returns(bool) {\n        require(_id != uint256(0));\n        // call internal function\n        assert(_insertPool(_id, 2));\n        // if inserted then make value distribution \n        assert(_distributeValue(_id));\n        return true;\n    }\n    /// TokenPool Connectors helpers\n    function connector_owns(address _claimant, uint256 _tokenId) public view connectorOnly returns (bool) {\n        return container.owns(_claimant, _tokenId);\n    }\n    function connector_getMetadata(uint256 _id) view public connectorOnly returns (string) {\n        return container.getNFTMetadata(_id);\n    }\n    function connector_setMetadata(uint256 _id, string _metadata) public connectorOnly {\n        container.setNFTMetadata(_id, _metadata);\n    }\n    function connector_createNFT(uint256 _amount, address _member) public connectorOnly returns(uint256) {\n        return container.createNFT(_amount, \"Loyalty\", uint256(0), _member);\n    }\n    function connector_addTokenToSubPool(uint256 _id) public connectorOnly returns(bool) {\n        return _addTokenToSubPool(_id);\n    }\n    function connector_tokensOfOwner(address _owner) view public connectorOnly returns(uint256[] ownerTokens) {\n        return container.tokensOfOwner(_owner);\n    }\n    function getSubPool(uint256 _id) public view returns (uint256) {\n        return container.tokenIndexToPoolToken(_id);\n    }\n    function getState(uint256 _id) public view returns (uint256) {\n        return container.getNFTState(_id);\n    }\n    function setState(uint256 _id, uint256 _state) public connectorOnly {\n        container.setNFTState(_id, _state);\n    }\n    function getPoolSize() public view returns (uint256) {\n        return pools.length;\n    }\n    function getValue(uint256 _id) public view returns(uint256) {\n        return container.getNFTValue(_id);\n    }\n    function setValue(uint256 _id, uint256 _value) public connectorOnly {\n        container.setNFTValue(_id, _value);\n    }\n    function init() public ownerOnly {\n        // Creating templates\n        uint superPoolId = container.createNFT(10 ether, \"SuperPool\", uint256(1), owner);    // fix initial capital for 10 Ether\n        uint poolId = container.createNFT(uint256(0), \"Pool\", uint256(1), owner);\n        uint subPoolId = container.createNFT(uint256(0), \"SubPool\", uint256(2), owner);\n\n        // Build initil structure SubPool --> Pool --> SuperPool\n        container.addToken(poolId, superPoolId);\n        container.addToken(subPoolId, poolId);\n\n        // Build configuration \n        // SuperPool configuration\n        Pool memory superPool = Pool({\n            level: uint8(0),\n            maxNumber: uint256(1),\n            maxMember: uint256(10),\n            number: uint256(1),\n            last: uint256(superPoolId),\n            share: uint256(0)\n        });\n        pools.push(superPool);\n        // Pool configuration \n        Pool memory pool = Pool({\n            level: uint8(1),\n            maxNumber: uint256(10),\n            maxMember: uint256(1000),\n            number: uint256(1),\n            last: uint256(poolId),\n            share: uint256(0)\n        });\n        pools.push(pool);\n        // SubPool configuration \n        Pool memory subPool = Pool({\n            level: uint8(2),\n            maxNumber: uint256(1000),\n            maxMember: uint256(1000),\n            number: uint256(1),\n            last: uint256(subPoolId),\n            share: uint256(100)\n        });\n        pools.push(subPool);\n        // set comission to 0\n        container.setNFTValue(uint256(0), uint256(0));\n    }\n    /// TokenPool Constructor\n    constructor(ITokenContainer _container)  public { \n        container = _container;\n        maxLevel = 4;\n    }\n}",
  "sourcePath": "/Users/sergei/LoyaltyCrowdsurance/contracts/TokenPool.sol",
  "compiler": {
    "name": "solc",
    "version": "0.4.24+commit.e67f0147.Emscripten.clang"
  },
  "schemaVersion": "2.0.1",
  "updatedAt": "2018-08-12T22:35:46.066Z"
}